:020000040800F2
:10000000285D002015030008C71A0008811A00089F
:10001000C51A000871180008811F000800000000C0
:100020000000000000000000000000005502000871
:100030007318000800000000B1020008E51C000869
:100040002F0300082F0300082F0300082F030008C8
:100050002F0300082F0300082F0300082F030008B8
:100060002F0300082F0300082F0300082F030008A8
:100070002F0300082F0300082F0300082F03000898
:100080002F0300082F0300082F0300082F03000888
:100090002F0300082F0300082F0300082F03000878
:1000A0002F0300082F0300082F0300082F03000868
:1000B0002F0300082F0300082F0300082F03000858
:1000C0002F0300082F0300082F0300082F03000848
:1000D0002F030008551D0008B91D00082F03000854
:1000E0002F0300082F0300082F0300082F03000828
:1000F0002F0300082F0300082F0300082F03000818
:100100002F0300082F0300082F0300082F03000807
:100110002F0300082F0300082F0300082F030008F7
:100120002F0300082F0300082F0300082F030008E7
:100130002F0300082F0300082F0300082F030008D7
:100140002F0300082F0300082F0300082F030008C7
:100150002F0300082F0300082F0300082F030008B7
:100160002F0300082F0300082F0300082F030008A7
:100170002F0300082F0300082F0300082F03000897
:100180002F0300082F03000800F002F800F052F8D7
:100190000AA090E8000C82448344AAF10107DA45E2
:1001A00001D100F047F8AFF2090EBAE80F0013F0E2
:1001B000010F18BFFB1A43F0010318475C4200000F
:1001C0007C420000103A24BF78C878C1FAD85207A0
:1001D00024BF30C830C144BF04680C6070470000C1
:1001E0000023002400250026103A28BF78C1FBD840
:1001F000520728BF30C148BF0B607047662903F023
:100200002387642900F0F280752900F0EF806329CC
:1002100000F0A385002070471FB503F010FF00F029
:10022000EDFD04000020002103F07CFEE0601FBD16
:1002300010B510BD00F0E6FE1146FFF7EDFF01F02E
:100240006DFF00F004FF03B4FFF7F2FF03BC01F001
:10025000B7FE00002C4B19680868B0E8F04F80F337
:100260000988BFF36F8F4FF0000080F3118870474B
:100270000000000008480068006880F308884FF01C
:10028000000080F3148862B661B6BFF34F8FBFF3EE
:100290006F8F00DF00BF00BF08ED00E0DFF80C004B
:1002A000016841F470010160704700BF88ED00E013
:1002B000EFF30980BFF36F8F134B1A681EF0100F16
:1002C00008BF20ED108A20E9F04F106009B44FF00C
:1002D000500080F31188BFF34F8FBFF36F8F02F090
:1002E0006BFF4FF0000080F3118809BC19680868A3
:1002F000B0E8F04F1EF0100F08BFB0EC108A80F38A
:100300000988BFF36F8F70474C000020EFF3058022
:10031000704700000948804709480047FEE7FEE7AC
:10032000FEE7FEE7FEE7FEE7FEE7FEE7FEE7FEE7A5
:1003300004480549054A064B70470000F91C0008AF
:100340008901000828570020285D00202859002036
:1003500028590020704700000FB4044910B503AAC3
:10036000029800F007FD10BC5DF814FB3800002077
:100370000FB41CB5074B06AA7B446946009005984C
:1003800000F0C9FC0020694600F0D8FC1CBC5DF8F8
:1003900014FB0000C109000070B50C460546012A97
:1003A00005D02878800600D5EA69002302E0012301
:1003B00005E05B1C934202D2E05C0028F9D1A869F9
:1003C000E618C01AA861286A184428622846AFF3C4
:1003D000008004E0D5E9012114F8010B9047B442F4
:1003E000F8D32846AFF3008070BD00002DE9F0413E
:1003F0000646002410687529314616A510D0AFF3C3
:100400000080002802DA404213A507E031688A071D
:1004100001D512A502E0490704D511A5012401E088
:10042000AFF3008000210A2206F1240709E0B0FBA7
:10043000F2FCB0FBF2F302FB1C003030785418469B
:10044000491C0028F3D123462A463046BDE8F04136
:1004500000F0F4B9000000002D0000002B000000A7
:10046000200000002DE9F0474FF0000A89460446BD
:10047000C0F820A02046E1688847002876D02528CB
:1004800006D0D4E901219047206A401C2062F1E7A0
:10049000E168204600258847C4F81CA006460027CE
:1004A000C4F818A02A2E09D0304601F082FD38B3D6
:1004B00004EB8708303EC8F8186019E059F8041BAF
:1004C000204604EB87029161E1688847012F0646C8
:1004D00018D1E069002820DA25F020051DE0D8F8C1
:1004E000180000EB800006EB40003038C8F8180018
:1004F0002046E1688847064601F05BFD0028EED102
:10050000012F0AD02E2E08D12046E16888477F1C93
:100510000646022F45F02005C4DBA069002803DA57
:10052000404245F00105A061E80701D025F0100523
:10053000B6B1A6F14100192802D8203645F400656D
:100540004A463146204625604D46FFF757FE58B1D2
:10055000012806D0ED1D25F0070000F1080989E704
:1005600004E005F1040985E730468AE7206ABDE822
:10057000F08710B5431E13F8014F002CFBD105E0A6
:1005800011F8014B002C03F8014B03D0521EF7D297
:100590000021197010BD40EA0103024630B59B07E7
:1005A00010D14FF0013400E008C208C91D1B9D4363
:1005B00015EAC41FF8D013F0FF0102F8011B0DD09B
:1005C0001B0AF8E711F8013B002B02F8013B05D0AC
:1005D00011F8013B002B02F8013BF3D130BD10B5FF
:1005E000431C02E010F8011B71B18107FAD14FF0F2
:1005F000013202C88C1A8C4314EAC211F9D0C01A15
:100600000A0603D0C01E10BDC01A10BD0A0401D0D6
:10061000801E10BD0902FCD0401E10BD40EA01033F
:1006200070B59B072ED14FF00136042A2AD308C893
:1006300010C99D1B9D43121F15EAC61517D0D8B2CD
:10064000E1B2401A50EA056110D198B2A1B2401A45
:1006500050EA05410AD123F07F4024F07F41401A3F
:1006600050EA052102D1180EA0EB146070BDA34220
:10067000DBD018BA21BA884201D9012070BD4FF0F1
:10068000FF3070BD0AB9002070BD10F8013B11F8B1
:10069000014B63B1A3420AD1521E08D010F8013BAE
:1006A00011F8014B1BB1A34201D1521EEDD1181B11
:1006B00070BD032A40F2308010F0030C00F015806A
:1006C00011F8013BBCF1020F624498BF11F801CB55
:1006D00000F8013B38BF11F8013BA2F1040298BFBA
:1006E00000F801CB38BF00F8013B11F0030300F024
:1006F0005383083AC0F0088051F8043B083A51F897
:1007000004CBA0E80810F5E7121D5CBF51F8043BCC
:1007100040F8043BAFF30080D20724BF11F8013B3F
:1007200011F801CB48BF11F8012B24BF00F8013BA1
:1007300000F801CB48BF00F8012B704702F0FF031F
:1007400043EA032242EA024200F002B84FF00002FC
:100750000429C0F0128010F0030C00F01B80CCF1D3
:10076000040CBCF1020F18BF00F8012BA8BF20F841
:10077000022BA1EB0C0100F00DB85FEAC17C24BF95
:1007800000F8012B00F8012B48BF00F8012B70473F
:100790004FF0000200B5134694469646203922BF1A
:1007A000A0E80C50A0E80C50B1F12001BFF4F7AF65
:1007B000090728BFA0E80C5048BF0CC05DF804EB47
:1007C000890028BF40F8042B08BF704748BF20F8B5
:1007D000022B11F0804F18BF00F8012B704710B5A5
:1007E000044610F0030F08BF11F0030F40F015800E
:1007F0004FF0013E121FC0F20E8051F8043BA3EBF4
:100800000E0C2CEA030C1CEACE1C08BF40F8043B7B
:10081000F0D0A1F1040102F10402521E08DB11F82C
:10082000013B002B00F8013BF7D11146FFF78EFF8B
:10083000204610BD70477047704770472DE9F0475C
:100840000D4699469246044600F124080168880640
:1008500004D5E06921F01001216000E00120A842E8
:1008600001DD471B00E00027A1697A1902EB0900AE
:10087000081AA0612078C00602D42046AFF3008099
:10088000002608E0D4E901211AF806009047206A02
:10089000401C761C20624E45F4DB2078C0060AD549
:1008A0002046AFF3008006E0D4E9012130209047D4
:1008B000206A401C2062381EA7F10107F4DC07E023
:1008C000D4E9012118F805009047206A401C2062F5
:1008D000281EA5F10105F3DC2046AFF30080207847
:1008E000000602D50220BDE8F0870120FBE7704733
:1008F0002DE9FF4F0C461E464FF0FF378BB0D2E973
:100900000001DDF860800A908A46C1F30A5505B9F6
:100910003D46002108464FF00000BAF1000F00F4F8
:10092000400005DA00EB80004FF4400101EA50007E
:100930004FEA9059B9F1010F00DDB9460A9850EA23
:100940004A000ED044F61050A5F2FF3545432F144F
:10095000B8F1000F1ED07542291E1EDDC9F100023C
:100960001CE0B8F1010F4FF0000001D0302103E08E
:10097000F24305E02154401CB042FBDB304600222C
:10098000002121540B99C1F80880C1E900200FB063
:10099000BDE8F08FBD1B6D1CDEE74A4600DA6942F8
:1009A00006A800F0B5FA06AB93E8070003AB83E8AE
:1009B000070050460A9900F093FB8DE80700A0F568
:1009C00000501F3800900398002D0ADD42F21F01ED
:1009D0004A460844002303A90390684600F0FCFD42
:1009E00009E0A0F500504A461F38002303A90390F0
:1009F000684600F006FE8DE807000004000C03D0F6
:100A00004FF0FF30410800E01046B8F1000F03D06E
:100A10000022009215461EE0751E05D400F0F2F982
:100A2000303262556D1EF9D5B3460122084302D01B
:100A300000227F1C04E02078302801D100227F1E94
:100A4000002A099784D01DE0112D07DA00F0DAF9A9
:100A5000303262556D1C50EA0102F5D1084302D0D4
:100A60000098C8B10EE00021681E05E0235C625CBE
:100A700063542254401E491C8142F7DBAB46A81B3D
:100A8000401E0990002004F80B000B98099AC0F84A
:100A90000880C0E9002B7AE711264FF0000857E7DD
:100AA0002DE9F04F88460446D21D22F0070191B08F
:100AB000D1E90001CDE90A0101F063FA02460B9881
:100AC000C00F01D02D2007E02068810701D52B2021
:100AD00002E0202101EAC000032A099001D0072A80
:100AE00005DB03464146204600F0D2F90BE12078B1
:100AF000800601D5E06900E00620B8F1650F814667
:100B000006D0B8F1660F18D0B8F1670F70D131E098
:100B10000020B9F1110F009001DB112301E009F170
:100B200001030AAA01A90CA8FFF7E2FEDDE90C7097
:100B3000002609F10105834647E001204B4600905D
:100B40004FF000470AAA01A90CA8FFF7D1FEDDE982
:100B50000DB00C995D46002610B909F101000D1881
:100B6000B9EB050003D4C0F1FF3609F10105A5EB8F
:100B700009002BE0B9F1010F01DA4FF00109002063
:100B8000B9F1110F0090484601DD112300E0034642
:100B90000AAA01A90CA8FFF7ABFEDDE90C704D46CF
:100BA00000268346207800070AD4AB4500DA5D466C
:100BB00001A8012D04DD411911F8011C302907D0CD
:100BC0004F4502DA17F1040F04DA012082460FE0E4
:100BD0006D1EEEE7002F02DCED1B3E4403E0781CA7
:100BE000A84200DD7D1CB81B00F1010A4FF0004750
:100BF0002078000703D4AA4501DB4FF0FF3A00211B
:100C0000B7F1004F0DF143088DF8431024D00220B6
:100C10002B23002F01DA7F422D230A21021EA0F18F
:100C2000010000DC5FB197FBF1FC97FBF1F201FBE7
:100C30001C7C17460CF1300C08F801CDEEE7A8F14A
:100C4000010003702188090501D5452100E06521D7
:100C5000A0F1010800F8011C09980FA9A1EB0807F1
:100C6000FF1D00B10120411901EBEA70A169384470
:100C7000081A401EA0612078C00602D42046AFF3B7
:100C80000080099828B1D4E901219047206A401CCE
:100C900020622078C00622D52046AFF300801EE0F7
:100CA000002E04DBB34502DD01A8805D00E03020AA
:100CB000D4E901219047206A401C2062761CAAF1E9
:100CC00001005FEA000A0AD100F098F8C0680168E4
:100CD000405CD4E901219047206A401C2062281E14
:100CE000A5F10105DCDC07E0D4E9012118F8010BCE
:100CF0009047206A401C2062381EA7F10107F3DCF0
:100D00002046AFF30080032011B041E601694A1C80
:100D100002610878704700B58FB0CDE9013100213C
:100D2000059105497944CDE9031011466846FFF75E
:100D300099FB0FB000BD0000E5FFFFFF0A6802F855
:100D4000010B0A60704710B5436913B1AFF300801F
:100D500001E0FFF721FB012010BD127800F1240112
:100D60000A7000224A700122EDE711684FF0FF324D
:100D7000E9E70000074B70B50D467B44FFF7CBFF5A
:100D80000446284600F036F910B14FF0FF3070BD30
:100D9000204670BD4B13000010B5203AC0F00B8008
:100DA000B1E81850203AA0E81850B1E81850A0E86F
:100DB0001850BFF4F5AF5FEA027C24BFB1E81850C9
:100DC000A0E8185044BF18C918C0BDE810405FEA39
:100DD000827C24BF51F8043B40F8043B08BF7047B5
:100DE000D20728BF31F8023B48BF11F8012B28BFBA
:100DF00020F8023B48BF00F8012B704700487047BD
:100E0000E456002030B5B0F10A024FEA900E71F1BD
:100E100000034EEA817EB0EB0E0061EB91014FEAD8
:100E2000101E4EEA017E10EB0E0041EB11114FEA4D
:100E3000102E4EEA016E10EB0E0041EB11214FEA2D
:100E4000104E4EEA014E10EB0E0041EB11414018DE
:100E500041F100014FEAD00040EA41704FEAD10170
:100E600010EB80054FEA810444EA907444EB0104DE
:100E70006D1944EB0404521BA3414FF0000348BF1B
:100E80000A3200D530BD401C41F1000130BD0000E8
:100E90002DE9F0411F46044603260168072A01F4A4
:100EA000006004DB08B116A505E016A503E008B153
:100EB00015A500E015A521F010002060A069C01E56
:100EC000A0610FB1401EA0612046AFF300804FB17A
:100ED000D4E9012138469047206A401C2062C01C9A
:100EE000206206E0206AFAE7D4E9012115F8010B37
:100EF0009047761EF8D22046AFF30080BDE8F0811F
:100F00004E414E006E616E00494E4600696E6600AD
:100F10002DE9F047814616468AB0354878440DC819
:100F20008DE80D0032487844801C03AC0DC884E87D
:100F30000D0041F69B300844372190FBF1F290FB05
:100F4000F1F5A5F1800501FB12041B3C02D56442BA
:100F5000012000E00020DFF898A080460027FA4436
:100F6000AAF1BE0A0EE0E0070AD03246684607EB57
:100F7000470101230AEB810100F043FB8DE80700E4
:100F800064107F1C002CEED1194F7F44AE3F19E056
:100F9000E80715D007EB04100DF1180A90E80E00D1
:100FA0008AE80E00C068F04201D1981908903246D4
:100FB000012306A903A800F024FB03AB83E8070084
:100FC0006D10641C002DE3D14FF0010332466946D9
:100FD000B8F1000F03A802D000F0FEFA01E000F023
:100FE00010FBC9E90001C9F808200AB0BDE8F08784
:100FF000F4310000007B00F080007047004870472B
:10100000C45600207546FFF7F9FFAE460500694655
:10101000534620F00700854618B020B5FFF788F941
:10102000BDE820404FF000064FF000074FF00008E9
:101030004FF0000B21F00701AC46ACE8C009ACE86A
:10104000C009ACE8C009ACE8C0098D46704710B5CE
:101050000446AFF300802046BDE81040FFF7F3B828
:101060004FF0013C50F8042B51F8043B9A4221D137
:10107000A2EB0C03934313EACC1317D150F8042BC3
:1010800051F8043B9A4215D1A2EB0C03934313EAA7
:10109000CC130BD150F8042B51F8043B9A4209D1E0
:1010A000A2EB0C03934313EACC13DBD04FF0000008
:1010B000704700BFD01A01BAB1FA81F101F01801EE
:1010C00022FA01F0CB40C1F12001DBB2C0B2C01A5C
:1010D0002CFA01F3D11A914311EAC311E6D17047FA
:1010E0005FEA400C08BF91F0000F4FEA8C234FEAF3
:1010F000C12243EA51514FEA1C5018BF00F5F0409D
:101100004FEA300018BF41F000415FEA6C5C00F02C
:101110002980BCF1FF3F08BF40F080407047130CAE
:1011200006BF12044FF0100C4FF0000C130E04BF5A
:1011300012020CF1080C130F04BF12010CF1040C85
:10114000930F04BF92000CF1020CD30F04BF5200A6
:101150000CF1010C11464FF00002A0F11F00A0EBB2
:101160000C00704711F0004F08BF704731F000418C
:101170003FF4D5AF0B0C06BF09044FF0100C4FF035
:10118000000C0B0E04BF09020CF1080C0B0F04BF7E
:1011900009010CF1040C8B0F04BF89000CF1020C47
:1011A000CB0F04BF49000CF1010CCCF12003A0EBE4
:1011B0000C0022FA03F302FA0CF241EA030100F1F7
:1011C0000100704720F07F4C80EA030023F07F4746
:1011D000ACEB070303F57C5300F0004003F1FF0381
:1011E0002DE980494FEA154B09B44FEA144325EA2B
:1011F0000B4E24EA03480FF2042606EB1327490896
:101200003E785FEA320203FB0667C7F5000707FB7B
:1012100006F64FEA54374FEAD64606F1020607FBB8
:10122000066CCCF1005C4FEA1C472CEA074C07FB2C
:1012300006F40CFB06F504EB15464FEA961634BF90
:1012400000204FF000404FEAD13706FB07FC4FEA81
:101250001C4C0CFB0BF7D21B03FB0CF761EB0701DB
:101260000CFB0EF7B0EB074072EB17420CFB08F7D4
:1012700034BFA2EB0742B2EB074261EB17414FEAE2
:101280000C444FEA910706FB07FC4FEA1C4C0CFB91
:101290000BF7B0EBC74072EB573203FB0CF734BFD0
:1012A000A2EBC742B2EBC74261EB57310CFB0EF722
:1012B000B0EBC70072EB57720CFB08F734BFA2EB20
:1012C000C702B2EBC70261EB5771039F4FEA81611E
:1012D00041EA921104EBCC044FEAD1374FEA826223
:1012E00006FB07FC42EA90124FEA80604FEA1C4C72
:1012F0000CFB0BF7D21B03FB0CF761EB07010CFB9C
:101300000EF7B0EB074072EB17420CFB08F734BF47
:10131000A2EB0742B2EB074261EB17414FEA8C5553
:101320004FEA910704EB9C2406FB07FC4FEA1C4C98
:101330000CFB0BF7B0EBC74072EB573203FB0CF71B
:1013400034BFA2EBC742B2EBC74261EB57310CFB93
:101350000EF7B0EBC70072EB57720CFB08F734BF07
:10136000A2EBC702B2EBC70261EB577115EB4C253C
:101370004FEA816141EA92114FEA82624FEAD13726
:1013800042EA901206FB07FC44F100044FEA806039
:101390004FEA1C4C0CFB0BF7D21B03FB0CF761EB69
:1013A00007010CFB0EF7B0EB074072EB17420CFB8A
:1013B00008F734BFA2EB0742B2EB074261EB1741DB
:1013C00015EB1C154FEA813141EA92414FEA823216
:1013D00042EA90424FEA80304FEA0C7644F1000432
:1013E00048EA03434EEA0B484FF0000EB2EB080CFC
:1013F00071EB030724BF624639464EEB0E0E4FF0E9
:10140000000B0018524149414BEB0B0BB2EB080C9F
:1014100071EB03077BF1000B24BF624639464EEBAC
:101420000E0E4FF0000B0018524149414BEB0B0BD5
:10143000B2EB080C71EB03077BF1000B24BF624693
:1014400039464EEB0E0E51EA020718BF46F0010670
:1014500016EB0E7655F1000254F1000103D5BDE8FC
:101460008901BDE80088BDE88901BDE80048B619DA
:10147000524141EB0101A3F10103704780807F7E5F
:101480007D7C7B7A797877767675747372717170FA
:101490006F6E6E6D6C6C6B6A6A69686867666665AC
:1014A0006464636362616160605F5F5E5E5D5D5C3A
:1014B0005C5B5B5A5A5959585857575656555555AB
:1014C0005454535352525251515050504F4F4F4E0B
:1014D0004E4D4D4D4C4C4C4B4B4B4A4A4A49494959
:1014E000484848474747474646464545454444449B
:1014F000444343434342424242414141002B9C46C4
:1015000030D477002BD01CB54FEA370703B44FF027
:1015100010004FF01001BAF1000F06D0BCF1000F1F
:10152000DCBF40F0080040F008014FF000000FBCA5
:10153000BDE810400BF1010BBBF1010F08BF5FEAE2
:10154000170722BF12F1010211F101014FF0004112
:1015500043F1000300F0004043EA00007047F9D374
:101560005708D0E746EA064613F1400F4FEA164601
:101570001FDD13F1200FDFBF16430A460021203381
:101580005B42BED0C3F1200746EA064602FA07F7DF
:101590004FEA164646EA0706C3F1200722FA03F28D
:1015A00001FA07F721FA03F14FF0000342EA0702BC
:1015B000A7E746EA020646EA06464FEA164646EA24
:1015C0000106BCBF46EA0646360C4FF000034FF05A
:1015D00000024FF0000194E72DE9804C9A469346B3
:1015E00070B491E8380007C831EA400C48BF34EACB
:1015F000430C03D5FFF7E6FDFFF780FFF0BCBDE825
:10160000008C2DE9804C9A46934670B491E83800DE
:1016100007C810F0804F08BF13F0804F03D100F0CF
:1016200005F8FFF76BFFF0BCBDE8008C20F07F47AA
:1016300080EA030023F07F4C07EB0C03A3F57C53F7
:1016400000F00040A3F1FE0392F0000F00F0B38021
:1016500095F0000F00F077802DE901494FEA114025
:101660004FEA144621EA004800FB06FC24EA06473C
:1016700008FB06F607FB08F800FB07F718EB06481F
:101680004CEB164C4FEA124B18EB07484FEA154645
:101690004CEB174022EA0B4E0BFB06FC25EA0647F3
:1016A0000EFB06F607FB0EFE0BFB07F71EEB064EC6
:1016B0004CEB164C4FF000061EEB074E4CEB174B55
:1016C00018EB0B0840F1000018EB0E0B58EB00086C
:1016D00040F100008F1A4FF000013CBFC943661B68
:1016E00014BFB5EB040C00213CBFC943F61B4FEA05
:1016F00017444EEA8E0E27EA04454FEA1C4704FBC6
:1017000007622CEA074C05FB07F70CFB05F604FB08
:101710000CFC16EB074642EB174216EB0C4642EB6D
:101720001C421BEB060658EB0202414146EA9E06AC
:1017300001D5BDE80189B619524141EB0101A3F180
:101740000103BDE801894FEA14454FEA114724EA35
:10175000054621EA074C05FB07F406FB07F70CFBDF
:1017600006F105FB0CFC11EB074144EB17444FEA73
:10177000124711EB0C4144EB1C4422EA074C05FBD9
:1017800007F206FB07F70CFB06F605FB0CFC16EB55
:10179000074642EB174216EB0C4642EB1C456A1813
:1017A00054F1000148BF7047B619524141EB0101A5
:1017B000A3F10103704795F0000F37D04FEA1142B3
:1017C0004FEA144721EA024624EA074C02FB07F1DC
:1017D00006FB07F70CFB06F402FB0CFC14EB0744BA
:1017E00041EB17414FEA154714EB0C4441EB1C4108
:1017F00025EA074C02FB07F506FB07F70CFB06F68C
:1018000002FB0CFC16EB074645EB174516EB0C46A6
:1018100045EB1C42121951F1000148BF7047B6193F
:10182000524141EB0101A3F1010370474FEA144516
:101830004FEA114724EA054621EA074C05FB07F168
:1018400006FB07F70CFB06F24FF0000605FB0CFC4D
:1018500012EB074241EB174112EB0C4251EB1C41DA
:1018600048BF7047921841EB0101A3F10103704793
:10187000FEE77047004870476052002030B50023F3
:101880001D46136019E0401C0478C4B1202CFAD125
:1018900010F8014F9CB1202CFAD05B1C8B420CD16C
:1018A00005461168491C116010F8011F09B1202973
:1018B000F7D1106818B9002501E08B42E4D328461F
:1018C00030BD00002DE9F0472F4E05469146706867
:1018D0008A4601244FF00008A0BB06F10C0010E07E
:1018E000006807683846FEF77AFE0246A85C2028A2
:1018F00000D020B939462846FEF790FE28B170681E
:10190000406870600028EBD134E0D6F804C0DCF801
:10191000000090F90C70002F10DB00202A460146D1
:1019200003E0202B18D00021521C1378002BF8D193
:1019300009B1401E40B2B84200D00024BCF1000FF3
:1019400018D07CB170682A464946006883685046C2
:10195000984704000BD013E00029E5D1401C40B2A9
:101960000121E1E74A4609495046FEF738FFC6F82B
:10197000048005E04A4606495046FEF730FF002441
:101980002046BDE8F0870000AC000020644100085C
:10199000BC41000870B5050011D0082000F0ACFF74
:1019A000040014D001F070F90020C4E900500C4884
:1019B00001684C60046001F087F9012070BD50207F
:1019C00080F31188BFF34F8FBFF36F8FFEE7502076
:1019D00080F31188BFF34F8FBFF36F8FFEE70000D6
:1019E000AC000020F0B5002201274FF0030C0B687B
:1019F00007FA02F52B40AB422CD1066853000CFAD3
:101A000003F4A64306600E79D0F800E09E4046EA53
:101A10000E0606600E79012E01D0022E12D18668C4
:101A2000A64386604E79D0F808E09E4046EA0E064E
:101A300086604668AE43466045688E799640B6B289
:101A400035434560C568A543C560CC799C40C368F3
:101A50001C43C460521C102AC9D3F0BD4B07DB0ED7
:101A60009A40C90810B500EB8100016A0F249C4020
:101A7000A1430162016A1143016210BD01837047F5
:101A8000FEE700007CB50121202000F059F801207C
:101A90008DF8040000228DF8062003218DF8051032
:101AA000074D4FF4C0648DF807000094694628463E
:101AB000FFF798FF21462846FFF7E0FF7CBD0000B6
:101AC00000140240FEE7704730B50F23C27801785A
:101AD0000125FAB1144A126801F1E02102F4E06232
:101AE000C2F5E062C2F30722C2F10404D340427897
:101AF000A24084781C401443220181F8002400781D
:101B000000F01F018D404009800000F1E020C0F886
:101B1000005130BD01F01F0085404809800000F1F0
:101B2000E020C0F8805130BD0CED00E002490843D0
:101B300002490860704700000000FA050CED00E063
:101B4000044A0029116801D0014300E0814311607B
:101B50007047000030380240044A0029116801D063
:101B6000014300E0814311607047000040380240AB
:101B7000044A0029116801D0014300E0814311604B
:101B8000704700004438024070B5204B1968204C63
:101B900011F00C0104D06610042903D0082903D0E9
:101BA00004601BE0066019E0184A121F1168C1F3B7
:101BB0008055116801F03F0115B1B6FBF1F101E06C
:101BC000B4FBF1F114681268C4F388146143C2F3E2
:101BD0000142521C5200B1FBF2F1016019680F2260
:101BE00002EA11110B4A545C0168E14041601C6833
:101BF000072505EA9424145D21FA04F484601B6827
:101C000005EA5333D25CD140C16070BD0838024050
:101C10000024F4003C0000200CB50022274900926B
:101C20000192086840F4803008604FF4A0430868CF
:101C300000F4003001900098401C0090019810B909
:101C400000989842F3D10868800334D501200190B0
:101C50001A484030026842F0805202601848026818
:101C600042F440420260154808300268026002688F
:101C700042F400420260026842F4A0520260031F74
:101C8000104A1A600A6842F080720A600A6892017B
:101C9000FCD50D4940F205720A60016821F003018C
:101CA0000160016841F0020101600168C1F3810136
:101CB0000229FAD10CBD01920CBD0000003802408F
:101CC0000070004008544007003C02404FF0E02103
:101CD0000428086903D020F004000861704740F030
:101CE0000400FAE710B501F079FF012803D0BDE840
:101CF000104001F02BBB10BD124810B5016841F433
:101D0000700101601048016841F0010101600E4A54
:101D100000210832116002680C4B1A400260031D5A
:101D20000B4A1A60026822F48022026006480C30D6
:101D30000160FFF771FF03494FF0006080390860D0
:101D400010BD000088ED00E000380240FFFFF6FE05
:101D50001030002470B5154C40F22551204600F09B
:101D600079F800280ED0204600F002F9104AC1B2DE
:101D70001088030406D444044FF0000306D50A2952
:101D800001D0138070BD40F400400DE00D2909D052
:101D9000C0F30D04074D401C80B229551080C728A0
:101DA000EFD870BD40F48040108070BD001001403D
:101DB00034000020D00000207CB500201D4D40F2F2
:101DC000277600903146284600F044F81A4C012846
:101DD0000BD16A4601A9606801F0FAFC01280CD019
:101DE00000223146284600F054F840F2255128469A
:101DF00000F030F8012806D010E09DF804102846C5
:101E000000F0BAF8F1E7284600F0B2F88DF80400C7
:101E100000236A4601A9206801F0E0FB0098002831
:101E200007D006494FF080500860BFF34F8FBFF3D3
:101E30006F8F7CBD004400402800002004ED00E0CE
:101E40000029818902D041F4005101E021F40051C0
:101E50008181704770B501F01F0501260024C1F390
:101E6000421306FA05F2012B0FD0022B0FD0838A02
:101E70004FEA11210088134206FA01F600EA060033
:101E800001D000B10124204670BD8389F0E7038AA8
:101E9000EEE710B5C1F3421301F01F040121A14088
:101EA000012B07D0022B07D01430002A026805D07E
:101EB0000A4304E00C30F8E71030F6E78A4302608A
:101EC00010BD00007FB50446008A0D46C98820F485
:101ED000405001432182A08941F20C618843A988C6
:101EE0002A8911436A8902431143A181A08A20F4FF
:101EF0004071A8890843A0826846FFF745FE1A484A
:101F0000844202D01948844201D1039800E002982B
:101F1000A189090400EBC00101EB0010296801D57B
:101F2000490000E08900B0FBF1F06422B0FBF2F15F
:101F300009010B096FF018056B4300EB8300A389BF
:101F40001D044FF0320306D503EBC000B0FBF2F0E6
:101F500000F0070005E003EB0010B0FBF2F000F02A
:101F60000F00084320817FBD001001400014014094
:101F70008088C0F308007047C1F308018180704772
:101F8000FEE703B401984100009850EAC12018BF51
:101F900004204A0D18BF40F0010040F2FF72B2EB7E
:101FA000515F08BF40F00200012808BF052002B0C1
:101FB000704730380A2801D201207047002070474E
:101FC0007047000010B504460420FFF77FFE0A4862
:101FD0004FF47A71047014FB01F1012242804FF03A
:101FE000E020026942F0020202614161016941F0B0
:101FF0000101016110BD0000300000202DE9F04119
:10200000040006D0184E306884420AD10020BDE892
:10201000F081502080F31188BFF34F8FBFF36F8F93
:10202000FEE700F031FE6569776BB66B00F04CFEA1
:10203000BD4201D0B54201D10220E8E70B488542FC
:1020400008D1A06A0028F7D194F854000128F3D0F1
:102050000320DCE705481438854202D00DB1012089
:10206000D5E70420D3E700004C0000204C020020FC
:102070002DED028B0C4C9FED0D8A4FF47A7594ED8B
:10208000040A30EE080A84ED040A10EE100A01F08A
:1020900065FF41EC100B06A053EC102BFEF75CF92A
:1020A000284600F0B3FEEAE7000000200AD7233CF0
:1020B000666C6F61745F6E756DB5C4D6B5CEAA3AA5
:1020C00020252E34660D0A0003490A885206FCD5E5
:1020D000C2B28A807047000000100140054C4FF4E6
:1020E000FA75D4F8A402C143C4F8A412284600F03B
:1020F0008DFEF6E7008042420025074C01264FF492
:102100004877C4F8A852C82000F080FEC4F8A8623E
:10211000384600F07BFEF4E7008042421CB54FF4E5
:102120004070FFF703FDA820FFF74CFF4FF4E130AC
:1021300000F0BAFCFFF7A6FC00F04AFE06490220B8
:10214000CDE900010023802204A1074801F01AFD17
:1021500000F0F6FF00201CBD0000002073746172C7
:10216000745F7461736B0000152A00082DE9F0415B
:10217000184E0F460446F5683068001D00F0EAFC72
:1021800038B9306890F82C100120884031698143BB
:102190003161601C07D137B13168BDE8F0410E48AC
:1021A000091D00F065BD30682C44AC4244603168C4
:1021B00005D2B06BBDE8F041091D00F041BD706B68
:1021C000091D00F03DFDB06A844200D2B462BDE852
:1021D000F08100004C0000204C0200202DE9F0416D
:1021E000054600F051FD2E4EB068401CB0603068CE
:1021F0002C4F10B1706940B32DE03560B0680128F4
:1022000029D1002404EB840007EB800000F00AFDD4
:10221000641C052CF6D32348643000F003FD2148EC
:10222000783000F0FFFC1F488C3000F0FBFC1D48AC
:10223000A03000F0F7FC1B48B43000F0F3FC194864
:10224000643070631430B06305E03068E96AC06AD6
:10225000884200D83560706A0121401C7062286491
:10226000E86A326981401143316100EB800007EB7D
:102270008000291D00F0FCFC00F026FD706900289C
:102280000CD03068E96AC06A884207D206494FF02C
:1022900080500860BFF34F8FBFF36F8FBDE8F081B0
:1022A0004C0000209801002004ED00E030B4026CE6
:1022B0000B46002A0BD0C1681144C1608468A1425A
:1022C00001D30168C16030BC1846FEF7F2B930BCDA
:1022D00070472DE9F041856B174604460026026CD5
:1022E00082B1C7B1E068FEF7E4F9E168206C091A31
:1022F000E1602268914202D2A168081AE060022FD0
:1023000016D017E02068A8B9A06801F0D9FC0646ED
:102310000020A0600EE06068FEF7CBF9216C6068D9
:1023200008446060A168884204D32068606001E0CE
:1023300005B16D1E6D1CA5633046BDE8F08110B57A
:102340000446006B00F0D4FC2046BDE8104000F0CD
:10235000CFBC000010484FF4A041420706D0C01D7A
:102360000D4920F00700411AC1F5A0410B4A002396
:102370000144C2E900030839103A21F00701116055
:102380004B600B600B1AC0E9001393604FF00040E4
:102390005360D0607047000060020020A40000205D
:1023A00010B5094C0A46A16811B904F10C01A160ED
:1023B00009684968FEF713FAA0684068A060002821
:1023C00000D0012010BD0000AC000020134E144DC1
:1023D000A6F1A0074FF08058DFF8489011E000F018
:1023E00053FCF068C468201D00F0B4FBA868401ED0
:1023F000A8606868401E686000F066FC2046FFF731
:102400009EFF68680028EAD138680128F9D9C9F820
:102410000080BFF34F8FBFF36F8FF2E738020020C9
:102420004C00002004ED00E02DE9F05F0E46DDE9F0
:102430000B941746834691009A460A9DA522206B6D
:10244000FEF77CF96FF00301206B01EB8701084474
:1024500020F00707780707D0502080F31188BFF3DA
:102460004F8FBFF36F8FFEE74FF0000866B100207B
:102470002218315C82F83410315C11B1401C0A28FA
:10248000F6D384F83D8001E084F83480052D00D334
:102490000425E562C4E91258201D00F0CEFB04F1CA
:1024A000180000F0CAFB2461C5F105006462A06158
:1024B000C4F8508084F8548052465946384600F09B
:1024C00093FA2060B9F1000F01D0C9F80040BDE8CF
:1024D000F09F000030B5114900E011460A688242C1
:1024E000FBD34B685C18844203D1406818444860B1
:1024F000084643681C18944209D1084C103C2468D3
:10250000A24209D052681A4442600A681268026006
:10251000814200D0086030BD0460F9E7A4000020CB
:1025200010B5044600F0B0FBA06B20B1002400F011
:10253000CBFB204610BD0124F9E72DE9F047814689
:10254000086892460C460025F8B1486801F1080673
:1025500040684860B04201D140684860D0F80C80C3
:10256000606842686260B24201D15168616060682F
:1025700005EBC50109EB8101C768534601223846C6
:1025800000F0C0FC6D1C4745EAD12846BDE8F08745
:10259000F8B513460F4605001FD0194E716821B3D8
:1025A0006A461846FFF76AF9040024D039462846DF
:1025B000FEF7CCF813A128467268FDF7D9FE214634
:1025C0002846009AFDF7D5FF022210A12846FDF704
:1025D000D0FF71680120491C10E0502080F3118861
:1025E000BFF34F8FBFF36F8FFEE709A1FDF7C0FE6A
:1025F00001207060F8BD0021297008467160F8BDA7
:10260000C000002025643A20000000000D0A0000F0
:1026100054686520706172616D65746572732077AE
:102620006572653A0D0A00000648416B096829B1D8
:10263000416BC968C9684968816270474FF0FF31D2
:10264000FAE700004C00002008484068401C4FF0AA
:10265000500080F3118804D0BFF34F8FBFF36F8F0A
:10266000FEE7BFF34F8FBFF36F8FFEE788000020B8
:1026700070B5134D04001BD012A1FDF78CFF20464E
:10268000FDF7ADFF044404200022202104F8011BC3
:10269000401C22700728F9DB29462046FDF77BFF06
:1026A0002846FDF79CFF204400F074FC002070BD1C
:1026B000502080F31188BFF34F8FBFF36F8FFEE779
:1026C0000C4200085461736B00000000F8B513461B
:1026D0000F46060022D01E4D296839B36A461846B7
:1026E000FFF7CCF8040027D039463046FEF72EF825
:1026F00018A130462A68FDF73BFE21463046009A75
:10270000FDF737FF022215A13046FDF732FF296899
:10271000032919D00120491C2960F8BD502080F3FD
:102720001188BFF34F8FBFF36F8FFEE70CA1FDF74A
:102730001FFE01202860F8BD502080F31188BFF3F0
:102740004F8FBFF36F8FFEE700200146E4E70000E4
:10275000C000002025643A20000000000D0A00009F
:1027600054686520746872656520706172616D657A
:102770007465727320776572653A0D0A0000000077
:1027800008B50024FFF776F8824619214FF4E130AE
:1027900001F034F93A4D83462868FDF720FF82B2F4
:1027A0005846296800F024FB364F374E4FF0FF396A
:1027B000C8464A466946584601F014F90128F7D13F
:1027C0004FF49671306801F051F80128F0D142467B
:1027D0009DF90010584601F083F99DF900000A2880
:1027E00015D00D2813D0082843D07F2841D0A0F160
:1027F00020015E2904D8322C02D23855641CE4B280
:1028000000231A461946306800F036FED0E7A86863
:10281000FDF7E5FE82B25846A96800F0E9FA24B94E
:10282000184918483231FDF7B6FE4FF48068424629
:1028300051461448FFF746F804465046FDF7CFFED0
:1028400082B25146584600F0D3FA002CEFD10D4920
:1028500001F13200FDF79FFE32210A48FDF776FFB5
:102860006868FDF7BCFE82B25846696800F0C0FA9D
:10287000C6E7002CC4D0641EE4B200203855BFE780
:102880008C40000860560020C80000202DE9F0416F
:10289000044600F0F9F994F9455004F1240609E0E2
:1028A000606A48B1304601F0A1FA08B100F0D4FBEB
:1028B0006D1E6DB2002DF3DC4FF0FF3684F84560DD
:1028C00000F002FA00F0E0F994F9445004F1100726
:1028D00009E0206948B1384601F088FA08B100F0F3
:1028E000BBFB6D1E6DB2002DF3DC84F84460BDE8C7
:1028F000F04100F0E9B900002DE9F041054600265D
:1029000000F052FC314F386808B9FFF723FDF86832
:1029100005424BD1C5B3083568070ED005F0070056
:10292000C0F108000544680707D0502080F31188E3
:10293000BFF34F8FBFF36F8FFEE72DB378688542EB
:1029400034D8224910310846046801E02146044683
:102950006068A84202D220680028F7D13868844213
:1029600024D00E682068086060680836411B102972
:102970000FD96019420708D0502080F31188BFF3A7
:102980004F8FBFF36F8FFEE710E041606560FFF788
:10299000A1FD61687868401A7860BA68904200D2F8
:1029A000B860F86801430020C4E9000101F058FA5A
:1029B000700707D0502080F31188BFF34F8FBFF30B
:1029C0006F8FFEE73046BDE8F081000094000020E4
:1029D0000449086818B10868C26C521CC2640868CF
:1029E000704700004C00002010B5031F4FF08074AA
:1029F0001C601B1F21F001011960191F044B0B60A3
:102A000014390A60091F6FF0020244380A6010BDD1
:102A1000492600081CB500F037F90421080200F02F
:102A2000F9FB14480124CDE900400023322212A111
:102A3000144801F0A7F80F480023001DCDE900401D
:102A4000322211A1134801F09DF80A4900200831F3
:102A5000CDE90001034680220FA1124801F092F84F
:102A60000448001F006800F0F7F9BDE81C4000F0C2
:102A70002BB90000040000206C6564305F74617342
:102A80006B000000DD2000086C6564315F746173C9
:102A90006B000000F9200008666C6F61745F746160
:102AA000736B000071200008F0B50646012187B065
:102AB0000846FFF745F801211020FFF759F8234D8C
:102AC000072209212846FEF7C9FF07220A212846C6
:102AD000FEF7C4FF02218DF814108DF815104FF485
:102AE000C060002404908DF8164001278DF81770FF
:102AF00004A92846FEF776FFADF80440ADF806407D
:102B0000ADF80840ADF80C400C20114CADF80A00AF
:102B1000009669462046FFF7D5F901212046FFF7C8
:102B20008FF9012240F225512046FFF7B2F9252006
:102B30008DF8180003208DF819008DF81A008DF813
:102B40001B7006A8FEF7C0FF07B0F0BD00000240F2
:102B500000100140D0E9013201699A60D0E90123F7
:102B60005A604A68824201D182684A60002202614A
:102B70000868401E08600868704700002DE9F047AB
:102B800017460A4606460024052500F00DFBDFF82F
:102B90008C80D8F8080082423BD3DFF884906D1E09
:102BA00005EB850104EBC40009EB810106EB800015
:102BB0000122FFF7C2FC0444002DF0D104EBC40055
:102BC00006EB800002224546D8F83410FFF7B5FC2A
:102BD000044404EBC40006EB80000222A96BFFF75B
:102BE000ACFC04440E4904EBC40006EB8000042254
:102BF000A031FFF7A2FC0444094904EBC40006EB32
:102C000080000322B431FFF798FC04440FB1002088
:102C1000386001F025F92046BDE8F0874C0000201F
:102C20009801002000F108014FF0FF32C0E90112C5
:102C3000C16001610021016070470021016170479E
:102C400030B50C68621C02D000F1080202E0026993
:102C500004E01A4653681D68A542FAD953684B60D0
:102C600099608A60516008610168491C016030BD4B
:102C700042684A6093688B6093685960916008610C
:102C80000168491C01607047502080F31188BFF330
:102C90004F8FBFF36F8F0A494868401C4860012876
:102CA0000CD10848006810F0FF0F07D0502080F3C7
:102CB0001188BFF34F8FBFF36F8FFEE7704700009F
:102CC0008800002004ED00E00849486828B1401E53
:102CD000486001D180F311887047502080F311883B
:102CE000BFF34F8FBFF36F8FFEE700008800002017
:102CF00070B5002827D0144DA0F108046068E96879
:102D0000084207D1502080F31188BFF34F8FBFF3E3
:102D10006F8FFEE722683AB1502080F31188BFF32D
:102D20004F8FBFF36F8FFEE78843606000F03CFA7F
:102D300060686968084468602046FFF7CBFBBDE81F
:102D4000704001F08DB870BD940000204FF0E0207D
:102D500000210161816105494FF47A720968B1FB74
:102D6000F2F1491E41610721016170471400002002
:102D700010B50024FDF7CAFA1349102814D300F146
:102D8000E02090F8F0030A78904207D2502080F3B8
:102D90001188BFF34F8FBFF36F8FFEE74FF42F62A1
:102DA0002046641C9042FBDB08480068896800F4F8
:102DB000E060884207D9502080F31188BFF34F8F1D
:102DC000BFF36F8FFEE710BD880000200CED00E020
:102DD00010B50648FEF7DEFD04481030FEF7DAFDB8
:102DE0000248BDE810402030FEF7D4BD5C4000082A
:102DF00070B50C46054604E00022284600F070FE3F
:102E0000641C94F900100029F6D170BD10B50200C1
:102E100014D00F48006B38B1502080F31188BFF3F5
:102E20004F8FBFF36F8FFEE700F0BEF90021104611
:102E3000FFF79CF901F014F8002807D105494FF07D
:102E400080500860BFF34F8FBFF36F8F10BD00003D
:102E50004C00002004ED00E070B50446FFF714FFBD
:102E6000254D04B92C68201DFFF774FE58B9E06A9F
:102E7000224A00EB800152F8211021B90121814042
:102E8000286988432861A06A18B104F11800FFF787
:102E900061FE686A401C68622868844208D117484D
:102EA000211DA030FFF7E4FE6868401C686007E061
:102EB000A868401EA8602046FFF741FAFFF7B4FB60
:102EC000FFF702FF6869002814D02868844211D1F6
:102ED000286B38B1502080F31188BFF34F8FBFF3B8
:102EE0006F8FFEE706494FF080500860BFF34F8FA9
:102EF000BFF36F8F70BD00004C00002098010020D0
:102F000004ED00E02DE9F0410C461D491746A8B13B
:102F1000054605F13400C4E90050E86A2061286BD9
:102F2000E061286CA0600026A86CC4E90506052BAA
:102F300012D00868854203D1267311E00D68E8E7D6
:102F40002373032B0CD100F02FF9A86A08B10220DB
:102F5000207300F085FF03E02846FFF74FF8207349
:102F60005FB10021286B01E0401C491C0278A52AB2
:102F7000FAD088082084BDE8F0812684FBE70000B1
:102F80004C00002002490A6A0260C968416070472B
:102F90004C0000202DE9FC474FF0000A064680F85F
:102FA00000A028488468806800EBC0008000FFF71C
:102FB000A3FC5FEA000843D000222146FFF7DEFDB4
:102FC0008146002735E007EBC70108EB8105287B28
:102FD00005280ED2DFE800F0030507090B0058248E
:102FE00008E0522406E0422404E0532402E0442492
:102FF00000E0002430466968FDF7CDFA3046FDF761
:10300000EEFA202101E03154401C0928FBD306F8D8
:1030100000A00644A968288CCDE9000122460AA137
:1030200030462B69FDF7A4F93046FDF7D8FA06447F
:103030007F1C4F45C7D34046BDE8FC47FFF758BE4D
:10304000BDE8FC874C00002009256309257509258A
:10305000750925750D0A000001490120C8617047F6
:103060004C00002010B50C4650B1094909681831D0
:10307000FFF7E6FD2046BDE810400121FFF776B8D6
:10308000502080F31188BFF34F8FBFF36F8FFEE79F
:103090004C00002070B50B4604004BD0E26CA2B18E
:1030A000A16C994200D21946E06A884242D0012AB6
:1030B00040D1214D2A6894420FD1502080F31188CD
:1030C000BFF34F8FBFF36F8FFEE7502080F311885F
:1030D000BFF34F8FBFF36F8FFEE7E162A269002A53
:1030E00002DBC1F10501A161144E00EB80006169B2
:1030F00006EB800081421DD1201DFFF72BFD012131
:1031000050B9E06A00EB800256F8222022B901FA99
:1031100000F2286990432861E06A2A6981401143DE
:10312000296100EB800006EB8000211DBDE87040A6
:10313000FFF79EBD70BD00004C00002098010020EC
:103140001CB515480024CDE900402346822213A176
:10315000144800F017FD012809D0401C1AD1502056
:1031600080F31188BFF34F8FBFF36F8FFEE75020BE
:1031700080F31188BFF34F8FBFF36F8F06484FF076
:10318000FF312C38816201214161C460BDE81C40DF
:1031900000F062B81CBD00007800002049444C4596
:1031A00000000000CD2300080248016B491C0163A8
:1031B000704700004C000020144A106B10B1012031
:1031C000D06170470020D06110691149B0FA80F0D9
:1031D000C0F11F0000EB800051F820306BB101EB13
:1031E000800000F10803416849684160994201D1BB
:1031F00049684160C86810607047502080F31188AA
:10320000BFF34F8FBFF36F8FFEE700004C0000202D
:10321000980100207CB505460C46012000F0ACF872
:103220000A49086048B10020CDE9004003462A461B
:1032300007A1084800F0A6FC7CBD502080F311884F
:10324000BFF34F8FBFF36F8FFEE70000C800002071
:10325000434C4900812700081CB537480168374AAC
:10326000914207D1502080F31188BFF34F8FBFF3F5
:103270006F8FFEE700683149491E884207D1502010
:1032800080F31188BFF34F8FBFF36F8FFEE72C4998
:1032900008780190FF20087008788DF800009DF8EC
:1032A00000009DF8002000F0F000904207D0502070
:1032B00080F31188BFF34F8FBFF36F8FFEE79DF848
:1032C0000000204B00F0500018700720986006E0C6
:1032D000401E98609DF8000040008DF800009DF8A9
:1032E000000000069868F3D4032807D0502080F32C
:1032F0001188BFF34F8FBFF36F8FFEE74FF440701D
:103300009860019808700C482030016841F4700101
:103310000160016841F070410160FFF717FD002076
:103320005860FCF7BBFF0848016841F0404101606C
:10333000FCF7A0FF00201CBD00ED00E071C20F41B2
:1033400000E400E08800002034EF00E010B55020D9
:1033500080F31188BFF34F8FBFF36F8F00F04CFCE9
:1033600018B104494FF080500860002080F31188A4
:1033700010BD000004ED00E010B502460021012060
:1033800000F00CF8041E07D00021816001600B469C
:103390000A46C16000F070F8204610BD2DE9F041EA
:1033A00017460E46050016D0EEB105FB06F050306C
:1033B000FFF7A2FA04000CD004F15000AEB1206077
:1033C000C4E90F562046012100F012F8204684F887
:1033D0004C70BDE8F081502080F31188BFF34F8F0F
:1033E000BFF36F8FFEE70020E1E72460E8E700000D
:1033F00070B50D46040025D0FFF746FCD4E90F2038
:10340000216802FB0011A1600021A16321686160B5
:103410000A46D4E90F01401E00FB0121E16021466C
:103420004FF0FF3001F8440F487004F110008DB1E7
:10343000FFF7F8FB04F12400FFF7F4FBFFF744FC6F
:10344000012070BD502080F31188BFF34F8FBFF370
:103450006F8FFEE721690029F0D000F0C7FC00283B
:10346000ECD004494FF080500860BFF34F8FBFF39A
:103470006F8FE3E704ED00E02DE9FF4F83B01F46B7
:103480008B4604004FF0000603D0BBF1000F08D0BC
:1034900011E0502080F31188BFF34F8FBFF36F8F7F
:1034A000FEE7206C38B1502080F31188BFF34F8FB6
:1034B000BFF36F8FFEE7022F0AD1E06B012807D020
:1034C000502080F31188BFF34F8FBFF36F8FFEE75B
:1034D00000F084FBDFF800914FF0000A4FF08058B5
:1034E00048B9059838B1502080F31188BFF34F8F49
:1034F000BFF36F8FFEE7FFF7C7FBA06BE16B88425E
:1035000005D3022F03D00598C8B1DEB11EE03A46BC
:1035100059462046FEF7DDFE616A19B104F1240028
:1035200000F064FC28B1C9F80080BFF34F8FBFF3EF
:103530006F8FFFF7C9FB012007B0BDE8F08FFFF7E1
:10354000C3FB21E06846FFF71DFD0126FFF7BCFB2A
:10355000FFF72AFEFFF798FB94F94400401C01D1C5
:1035600084F844A094F94500401C01D184F845A09A
:10357000FFF7AAFB05A9684600F0CAFA30B1204659
:10358000FFF784F900F06CFC0020D5E7FFF77CFB27
:10359000A06BE16B884201D1012500E00025FFF717
:1035A00093FB95B104F110000599FFF75BFD2046F0
:1035B000FFF76CF900F054FC00289CD1C9F800809A
:1035C000BFF34F8FBFF36F8F95E72046FFF75EF98C
:1035D00000F046FC8FE7000004ED00E02DE9F04725
:1035E0001F4690468946040003D0B9F1000F08D069
:1035F00011E0502080F31188BFF34F8FBFF36F8F1E
:10360000FEE7206C38B1502080F31188BFF34F8F54
:10361000BFF36F8FFEE7022F0AD1E06B012807D0BE
:10362000502080F31188BFF34F8FBFF36F8FFEE7F9
:10363000FFF79EFB5020EFF3118680F31188BFF354
:103640004F8FBFF36F8FA06BE16B884206D3022FC1
:1036500004D0002086F31188BDE8F08794F9455026
:103660003A4649462046FEF734FE681C04D06D1CDD
:1036700084F845500120EDE7606A0028FAD004F193
:10368000240000F0B3FB0028F4D0B8F1000FF1D013
:103690000121C8F80010EDE72DE9F74783B08A460D
:1036A00004004FF0000603D0BAF1000F08D011E07B
:1036B000502080F31188BFF34F8FBFF36F8FFEE769
:1036C000206C38B1502080F31188BFF34F8FBFF3C7
:1036D0006F8FFEE700F082FADFF8F09000274FF0DE
:1036E000805848B9059838B1502080F31188BFF34D
:1036F0004F8FBFF36F8FFEE7FFF7C6FAA56BC5B11B
:1037000051462046FEF7D2FD6D1EA563206950B1DB
:1037100004F1100000F06AFB28B1C9F80080BFF383
:103720004F8FBFF36F8FFFF7CFFA012006B0BDE8D0
:10373000F087059808B11EB106E0FFF7C5FA27E04B
:103740006846FFF71FFC0126FFF7BEFAFFF72CFDC6
:10375000FFF79AFA94F94400401C01D184F84470B0
:1037600094F94500401C01D184F84570FFF7ACFA8C
:1037700005A9684600F0CCF9002820460AD0FFF7DA
:1037800085F800F06DFB2046FEF7CAFE0028B3D096
:103790000020CBE7FEF7C4FE90B104F124000599A8
:1037A000FFF760FC2046FFF771F800F059FB002896
:1037B000A2D1C9F80080BFF34F8FBFF36F8F9BE793
:1037C0002046FFF763F800F04BFB95E704ED00E0BF
:1037D0002DE9F04790468946040003D0B9F1000F67
:1037E00008D011E0502080F31188BFF34F8FBFF352
:1037F0006F8FFEE7206C38B1502080F31188BFF343
:103800004F8FBFF36F8FFEE7FFF7B2FA5020EFF351
:10381000118780F31188BFF34F8FBFF36F8FA66BB3
:10382000F6B194F9445049462046FEF73FFD761E16
:10383000A663681C04D06D1C84F84450012010E07D
:1038400020690028FAD004F1100000F0CFFA002817
:10385000F4D0B8F1000FF1D00121C8F80010EDE765
:10386000002087F31188BDE8F08700002DE9F343BD
:103870004FF0000583B004002E4609D0206C78B1CB
:10388000502080F31188BFF34F8FBFF36F8FFEE797
:10389000502080F31188BFF34F8FBFF36F8FFEE787
:1038A00000F09CF9DFF8389100274FF0805848B9B4
:1038B000049838B1502080F31188BFF34F8FBFF3C5
:1038C0006F8FFEE7FFF7E0F9A06BC8B1401EA06361
:1038D000206810B9FFF77CF8A060206950B104F1AE
:1038E000100000F083FA28B1C9F80080BFF34F8FB1
:1038F000BFF36F8FFFF7E8F9012005B0BDE8F08353
:10390000049808B165B10FE03EB1502080F31188F2
:10391000BFF34F8FBFF36F8FFEE7FFF7D5F95DE081
:103920006846FFF72FFB0125FFF7CEF9FFF73CFCB8
:10393000FFF7AAF994F94400401C01D184F84470BF
:1039400094F94500401C01D184F84570FFF7BCF99B
:1039500004A9684600F0DCF80028204612D0FEF7E3
:1039600095FF00F07DFA2046FEF7DAFD0028A9D089
:103970009EB3FFF789F9606A50B3206B0068C0F10D
:10398000050126E0FEF7CCFDE0B1206838B9FFF76D
:103990007BF9A06800F0E0F90646FFF795F904F11D
:1039A00024000499FFF75EFB2046FEF76FFF00F04E
:1039B00057FA002886D1C9F80080BFF34F8FBFF3B4
:1039C0006F8F7FE72046FEF761FF00F049FA79E745
:1039D0000021A068FFF75EFB9FE7FFE700208CE770
:1039E00004ED00E0044810B50068FFF755FE00281C
:1039F00000D0012010BD0000280000202DE9F0417A
:103A00000D46804688B0002201212846FFF7C6FCFB
:103A1000304C002201212060681CFFF7BFFC606071
:103A20002168E9B3E0B301210846FEF789F80121D6
:103A30004804FEF791F8284E072202213046FEF78F
:103A40000DF8072203213046FEF708F802208DF812
:103A500014008DF8150000240C258DF81640012760
:103A600004958DF8177004A93046FDF7BBFFADF83B
:103A70000440ADF80640ADF80840ADF80C40174CD6
:103A8000CDF80080ADF80A5069462046FEF71AFAD4
:103A900026208DF818000A208DF81900052000E076
:103AA00011E08DF81A008DF81B7006A8FEF70CF8CF
:103AB000012240F225512046FEF7EBF90121204674
:103AC000FEF7BEF901E04FF0000808B04046BDE83F
:103AD000F081000028000020000002400044004067
:103AE00037B50948002301A94068FFF7C5FC012844
:103AF00002D0002420463EBD0124224640F2277118
:103B00000248FEF7C6F9F5E728000020004400400F
:103B10002DE9F0410C46050011D0C4B1FFF7B4F80F
:103B2000174EF1686B682268C81A571C17D02F68A7
:103B3000366AB74219D08B4217D8012410E05020C2
:103B400080F31188BFF34F8FBFF36F8FFEE75020D4
:103B500080F31188BFF34F8FBFF36F8FFEE7002410
:103B6000FFF7B2F82046BDE8F081824205D9101A6D
:103B700020602846FFF706FAF1E700202060DCE726
:103B80004C0000202DE9FF5F8346DDE90E87994652
:103B900016468A469000FEF7AFFE05001AD0582060
:103BA000FEF7AAFE040012D025630021CDE90241F0
:103BB000CDE900874B46324651465846FEF734FC65
:103BC0002046FEF70BFB012004B0BDE8F09F28461D
:103BD000FFF78EF84FF0FF30F6E700000548416927
:103BE00019B1006B18B10020704701207047022006
:103BF000704700004C0000202DE9F0412E4F0026B8
:103C0000386B40B1B869401CB861F86900B1012651
:103C10003046BDE8F081FD686D1CFD6013D1786B06
:103C2000006838B1502080F31188BFF34F8FBFF385
:103C30006F8FFEE7786BB96B7963B863386A401CA5
:103C40003862FEF7F1FCB86ADFF87080854209D36C
:103C5000786B006880B1786BC068C4686068854222
:103C60000DD2B8623868C06A00EB800158F82100B4
:103C70000128CAD90126C8E74FF0FF30F1E7201D1F
:103C8000FEF768FFA06A18B104F11800FEF762FFA2
:103C9000E06A01213A6981401143396100EB8001FA
:103CA00008EB8100211DFEF7E3FFE06A3968C96A6D
:103CB0008842CDD30126CBE74C000020980100209C
:103CC00070B504004FF0000041D0214D29688C42AE
:103CD00007D0502080F31188BFF34F8FBFF36F8F51
:103CE000FEE7E16C71B1491EE164A36CE26A9A429D
:103CF0002DD000292BD1201DFEF72CFF15490122C4
:103D000040B112E0502080F31188BFF34F8FBFF312
:103D10006F8FFEE7E06A00EB800351F8233023B990
:103D20002B6902FA00F083432B61A06CE062C0F1C2
:103D30000500A061E06A2B6982401A432A6100EB0A
:103D4000800001EB8000211DFEF792FF012070BD75
:103D50004C0000209801002070B504004FF00000D6
:103D600039D0204DE16A2A68D26A914234D2A069E2
:103D7000002804DB2868C06AC0F10500A061E06A81
:103D8000194E00EB8000616906EB800081421ED174
:103D9000201DFEF7DFFE012150B9E06A00EB800232
:103DA00056F8222022B92A6901FA00F082432A61DA
:103DB0002868C06AE0622A6981401143296100EBEA
:103DC000800006EB8000211DFEF752FF02E028680C
:103DD000C06AE062012070BDA16C2A68D26A91427B
:103DE000F8D370BD4C000020980100202DE9F0416F
:103DF000C068C468ACB104F118000746FEF7AAFE1B
:103E0000154D286B0126A0B139461448FEF730FF46
:103E1000E06A2968C96A88421CD90120EE61BDE8C0
:103E2000F081502080F31188BFF34F8FBFF36F8F65
:103E3000FEE7201DFEF78EFEE06A2A6906FA00F111
:103E400011432961054900EB80008C3901EB8000AA
:103E5000211DDBE70020E2E74C00002024020020C7
:103E60002DE9F0472C4D00242746286B38B1FEF78A
:103E70000BFF286B401E2863286B40B146E05020A2
:103E800080F31188BFF34F8FBFF36F8FFEE7A868F1
:103E900022490126D0B3A1F18C098846D8F8001038
:103EA000E9B1D8F80C00C46804F11800FEF752FE1E
:103EB000201DFEF74FFEE06A2A6906FA00F1114361
:103EC000296100EB800109EB8100211DFEF7D0FE86
:103ED000E06A2968C96A8842E0D3EE61DEE70CB186
:103EE000FEF7A2FBAC693CB1FFF786FE00B1EE61C4
:103EF000641EF9D10020A861E86938B1084901279A
:103F000038070860BFF34F8FBFF36F8FFEF7DCFEFB
:103F10003846BDE8F08700004C0000202402002055
:103F200004ED00E010B500290AD00878002807D079
:103F300005487844FDF794F8002801D0002010BD12
:103F40000248784410BD000006050000FE04000091
:103F50000808A0F500114FEA3101704743004FEA0D
:103F6000D30C4FEA3C0C43401FBF40070CF160519B
:103F700013F0FE4F70471CF0006F03D100200CF0CF
:103F8000004170470CF0004343EA507010B540EA1E
:103F9000CC0000F00EF800BF000000924FEA0001D4
:103FA000FFF7D6BF4FF000414FF00000A1F5002110
:103FB00070470EF1020E2EF0030E5EF8044B244201
:103FC00004D44FEA4102B2F17F4F11D84FEA4003C7
:103FD000B3F17F4F0CD80ED14FEAD07CB2F17F4FB6
:103FE0000CEB4C0C0CF1020C08BF4CEBD17C04E048
:103FF0004FF0080C01E04FEAD17C0CEB4C0324FAA3
:1040000003F404F00704B4F1040C06D20EEB840CA4
:10401000BDE810404CF0010C6047DFE80CF00708E9
:1040200002024FF00040A0F5800010BD084642009B
:1040300018BFD2F1807288BF00F0004010BD4FF071
:104040004070E1EE100A7047FCF72ABD5C410008A1
:104050002C410008A1230008000000007C43000858
:104060006442000871260008000000005843000860
:10407000B0420008CD260008030000006C43000891
:104080000443000891250008FF0000008C4300084D
:10409000DC4300088843000802400000000000A044
:1040A0000000000005400000000000C80000000003
:1040B0000C4000000000409C00000000194000007F
:1040C0000020BCBE0000000034400000BFC91B8EB1
:1040D00000000004B5400000504BCFD06607E2CF8F
:1040E000010000006C4100003E8251AADFEEA734BF
:1040F00001000000D9420000DCB5A0E23A301F9771
:10410000FFFFFFFFB4450000FD25A0C8E9A3C14F94
:10411000FFFFFFFFFF3F00000000008000000000E5
:10412000FF3F000000000080000000000D0A6865ED
:104130006C703A0D0A204C6973747320616C6C20AA
:10414000746865207265676973746572656420635D
:104150006F6D6D616E64730D0A0D0A0068656C7099
:1041600000000000496E636F727265637420636FB4
:104170006D6D616E6420706172616D657465722829
:1041800073292E2020456E746572202268656C703C
:104190002220746F20766965772061206C697374C2
:1041A000206F6620617661696C61626C6520636F67
:1041B0006D6D616E64732E0D0A0D0A00436F6D6D97
:1041C000616E64206E6F74207265636F676E6973D1
:1041D00065642E2020456E746572202768656C70BA
:1041E0002720746F20766965772061206C6973746D
:1041F000206F6620617661696C61626C6520636F17
:104200006D6D616E64732E0D0A0D0A002020202052
:104210002053746174652020205072696F72697434
:10422000792020537461636B20202020230D0A2AFB
:104230002A2A2A2A2A2A2A2A2A2A2A2A2A2A2A2ADE
:104240002A2A2A2A2A2A2A2A2A2A2A2A2A2A2A2ACE
:104250002A2A2A2A2A2A2A2A2A2A2A2A2A2A2A0DDB
:104260000A0000000D0A7461736B6C6973743A0D77
:104270000A20446973706C617973206120746162F3
:104280006C652073686F77696E672074686520734A
:1042900074617465206F662065616368204672658D
:1042A0006552544F53207461736B0D0A0000000077
:1042B0000D0A6563686F203C706172616D313E204C
:1042C0003C706172616D323E203C706172616D3391
:1042D0003E3A0D0A204578706563747320746872E5
:1042E000656520706172616D65746572732C2065FF
:1042F00063686F73206561636820696E20747572EE
:104300006E0D0A000D0A6563686F2D706172616D34
:104310006574657273203C2E2E2E3E3A0D0A205491
:10432000616B65207661726961626C65206E756D86
:10433000626572206F6620706172616D657465726E
:10434000732C206563686F73206561636820696EF4
:10435000207475726E0D0A006563686F2D332D70C1
:104360006172616D65746572730000006563686FEA
:104370002D706172616D6574657273007461736B29
:104380006C697374000000000D0A000046726565D8
:1043900052544F5320636F6D6D616E64207365726C
:1043A0007665722E0D0A547970652048656C702010
:1043B000746F20766965772061206C697374206F53
:1043C00066207265676973746572656420636F6DDA
:1043D0006D616E64732E0D0A0D0A3E000D0A5B506E
:1043E0007265737320454E54455220746F20657872
:1043F0006563757465207468652070726576696F91
:10440000757320636F6D6D616E6420616761696EA5
:104410005D0D0A3E0000000054440008000000202A
:10442000D0000000C401000824450008D00000208E
:10443000585C0000E00100081C0000004300000080
:10444000F8FFFFFF0C0000000E0000000F0000004E
:104450002E0000000000000000000000000000002E
:104460000000000000000000007A030A00000000C5
:104470000000000001020304060708090000000014
:10448000000000000000000000000000000000002C
:1044900000000000010203040102030406070809EA
:1044A000000000000000000000000000000000000C
:1044B00000000000000000000000000000000000FC
:1044C00000000000000000000000000000000000EC
:1044D00000000000000000000000000000000000DC
:1044E000AAAAAAAA00000000000000000000000024
:1044F00000000000000000000000000000000000BC
:10450000B800002000000000000000004C4000083F
:10451000000000000000000000000000000000009B
:044520000000000097
:040000050800018965
:00000001FF
